{
  "contractName": "Royalties",
  "abi": [
    {
      "inputs": [],
      "stateMutability": "nonpayable",
      "type": "constructor"
    },
    {
      "anonymous": false,
      "inputs": [
        {
          "indexed": true,
          "internalType": "address",
          "name": "owner",
          "type": "address"
        },
        {
          "indexed": true,
          "internalType": "address",
          "name": "spender",
          "type": "address"
        },
        {
          "indexed": false,
          "internalType": "uint256",
          "name": "value",
          "type": "uint256"
        }
      ],
      "name": "Approval",
      "type": "event"
    },
    {
      "anonymous": false,
      "inputs": [
        {
          "indexed": true,
          "internalType": "address",
          "name": "from",
          "type": "address"
        },
        {
          "indexed": true,
          "internalType": "address",
          "name": "to",
          "type": "address"
        },
        {
          "indexed": false,
          "internalType": "uint256",
          "name": "value",
          "type": "uint256"
        }
      ],
      "name": "Transfer",
      "type": "event"
    },
    {
      "inputs": [],
      "name": "_totalSupply",
      "outputs": [
        {
          "internalType": "uint256",
          "name": "",
          "type": "uint256"
        }
      ],
      "stateMutability": "view",
      "type": "function",
      "constant": true
    },
    {
      "inputs": [
        {
          "internalType": "address",
          "name": "owner",
          "type": "address"
        },
        {
          "internalType": "address",
          "name": "spender",
          "type": "address"
        }
      ],
      "name": "allowance",
      "outputs": [
        {
          "internalType": "uint256",
          "name": "",
          "type": "uint256"
        }
      ],
      "stateMutability": "view",
      "type": "function",
      "constant": true
    },
    {
      "inputs": [
        {
          "internalType": "address",
          "name": "spender",
          "type": "address"
        },
        {
          "internalType": "uint256",
          "name": "value",
          "type": "uint256"
        }
      ],
      "name": "approve",
      "outputs": [
        {
          "internalType": "bool",
          "name": "",
          "type": "bool"
        }
      ],
      "stateMutability": "nonpayable",
      "type": "function"
    },
    {
      "inputs": [
        {
          "internalType": "address",
          "name": "owner",
          "type": "address"
        }
      ],
      "name": "balanceOf",
      "outputs": [
        {
          "internalType": "uint256",
          "name": "",
          "type": "uint256"
        }
      ],
      "stateMutability": "view",
      "type": "function",
      "constant": true
    },
    {
      "inputs": [],
      "name": "decimals",
      "outputs": [
        {
          "internalType": "uint256",
          "name": "",
          "type": "uint256"
        }
      ],
      "stateMutability": "view",
      "type": "function",
      "constant": true
    },
    {
      "inputs": [
        {
          "internalType": "address",
          "name": "spender",
          "type": "address"
        },
        {
          "internalType": "uint256",
          "name": "subtractedValue",
          "type": "uint256"
        }
      ],
      "name": "decreaseAllowance",
      "outputs": [
        {
          "internalType": "bool",
          "name": "",
          "type": "bool"
        }
      ],
      "stateMutability": "nonpayable",
      "type": "function"
    },
    {
      "inputs": [
        {
          "internalType": "address",
          "name": "spender",
          "type": "address"
        },
        {
          "internalType": "uint256",
          "name": "addedValue",
          "type": "uint256"
        }
      ],
      "name": "increaseAllowance",
      "outputs": [
        {
          "internalType": "bool",
          "name": "",
          "type": "bool"
        }
      ],
      "stateMutability": "nonpayable",
      "type": "function"
    },
    {
      "inputs": [],
      "name": "name",
      "outputs": [
        {
          "internalType": "string",
          "name": "",
          "type": "string"
        }
      ],
      "stateMutability": "view",
      "type": "function",
      "constant": true
    },
    {
      "inputs": [],
      "name": "owner",
      "outputs": [
        {
          "internalType": "address payable",
          "name": "",
          "type": "address"
        }
      ],
      "stateMutability": "view",
      "type": "function",
      "constant": true
    },
    {
      "inputs": [],
      "name": "symbol",
      "outputs": [
        {
          "internalType": "string",
          "name": "",
          "type": "string"
        }
      ],
      "stateMutability": "view",
      "type": "function",
      "constant": true
    },
    {
      "inputs": [],
      "name": "totalSupply",
      "outputs": [
        {
          "internalType": "uint256",
          "name": "",
          "type": "uint256"
        }
      ],
      "stateMutability": "view",
      "type": "function",
      "constant": true
    },
    {
      "inputs": [
        {
          "internalType": "address",
          "name": "to",
          "type": "address"
        },
        {
          "internalType": "uint256",
          "name": "value",
          "type": "uint256"
        }
      ],
      "name": "transfer",
      "outputs": [
        {
          "internalType": "bool",
          "name": "",
          "type": "bool"
        }
      ],
      "stateMutability": "nonpayable",
      "type": "function"
    },
    {
      "inputs": [
        {
          "internalType": "address",
          "name": "from",
          "type": "address"
        },
        {
          "internalType": "address",
          "name": "to",
          "type": "address"
        },
        {
          "internalType": "uint256",
          "name": "value",
          "type": "uint256"
        }
      ],
      "name": "transferFrom",
      "outputs": [
        {
          "internalType": "bool",
          "name": "",
          "type": "bool"
        }
      ],
      "stateMutability": "nonpayable",
      "type": "function"
    },
    {
      "inputs": [
        {
          "internalType": "address",
          "name": "role",
          "type": "address"
        },
        {
          "internalType": "bool",
          "name": "talentOwner",
          "type": "bool"
        }
      ],
      "name": "registerTalentPieceOwner",
      "outputs": [],
      "stateMutability": "nonpayable",
      "type": "function"
    },
    {
      "inputs": [
        {
          "internalType": "string",
          "name": "name",
          "type": "string"
        },
        {
          "internalType": "string",
          "name": "description",
          "type": "string"
        },
        {
          "internalType": "uint256",
          "name": "cost",
          "type": "uint256"
        },
        {
          "internalType": "uint256",
          "name": "limit",
          "type": "uint256"
        }
      ],
      "name": "createTalentPiece",
      "outputs": [],
      "stateMutability": "nonpayable",
      "type": "function"
    },
    {
      "inputs": [
        {
          "internalType": "uint256",
          "name": "number",
          "type": "uint256"
        }
      ],
      "name": "useTalentPiece",
      "outputs": [
        {
          "components": [
            {
              "internalType": "address payable",
              "name": "by",
              "type": "address"
            },
            {
              "internalType": "string",
              "name": "name",
              "type": "string"
            },
            {
              "internalType": "string",
              "name": "description",
              "type": "string"
            },
            {
              "internalType": "uint256",
              "name": "cost",
              "type": "uint256"
            },
            {
              "internalType": "uint256",
              "name": "limit",
              "type": "uint256"
            }
          ],
          "internalType": "struct Royalties.Talent[]",
          "name": "show",
          "type": "tuple[]"
        }
      ],
      "stateMutability": "nonpayable",
      "type": "function"
    },
    {
      "inputs": [
        {
          "internalType": "uint256",
          "name": "number",
          "type": "uint256"
        }
      ],
      "name": "numberOfTimesUsed",
      "outputs": [
        {
          "internalType": "uint256",
          "name": "used",
          "type": "uint256"
        }
      ],
      "stateMutability": "view",
      "type": "function",
      "constant": true
    },
    {
      "inputs": [
        {
          "internalType": "uint256",
          "name": "number",
          "type": "uint256"
        }
      ],
      "name": "getData",
      "outputs": [
        {
          "internalType": "uint256",
          "name": "",
          "type": "uint256"
        },
        {
          "internalType": "string",
          "name": "",
          "type": "string"
        },
        {
          "internalType": "string",
          "name": "",
          "type": "string"
        },
        {
          "internalType": "uint256",
          "name": "",
          "type": "uint256"
        },
        {
          "internalType": "uint256",
          "name": "",
          "type": "uint256"
        }
      ],
      "stateMutability": "view",
      "type": "function",
      "constant": true
    },
    {
      "inputs": [],
      "name": "getNames",
      "outputs": [
        {
          "internalType": "string[]",
          "name": "",
          "type": "string[]"
        }
      ],
      "stateMutability": "view",
      "type": "function",
      "constant": true
    },
    {
      "inputs": [
        {
          "internalType": "address",
          "name": "Towner",
          "type": "address"
        }
      ],
      "name": "unregisterTalentPieceOwner",
      "outputs": [],
      "stateMutability": "nonpayable",
      "type": "function"
    }
  ],
  "bytecode": "0x60806040523480156200001157600080fd5b506040518060400160405280600781526020017f526f79616c747900000000000000000000000000000000000000000000000000815250600390805190602001906200005f929190620001b7565b506040518060400160405280600381526020017f52534d000000000000000000000000000000000000000000000000000000000081525060049080519060200190620000ad929190620001b7565b5060006005819055506305f5e1006002819055506002546000803373ffffffffffffffffffffffffffffffffffffffff1673ffffffffffffffffffffffffffffffffffffffff168152602001908152602001600020819055503373ffffffffffffffffffffffffffffffffffffffff16600073ffffffffffffffffffffffffffffffffffffffff167fddf252ad1be2c89b69c2b068fc378daa952ba7f163c4a11628f55a4df523b3ef60025460405162000168919062000278565b60405180910390a333600860006101000a81548173ffffffffffffffffffffffffffffffffffffffff021916908373ffffffffffffffffffffffffffffffffffffffff16021790555062000304565b828054620001c5906200029f565b90600052602060002090601f016020900481019282620001e9576000855562000235565b82601f106200020457805160ff191683800117855562000235565b8280016001018555821562000235579182015b828111156200023457825182559160200191906001019062000217565b5b50905062000244919062000248565b5090565b5b808211156200026357600081600090555060010162000249565b5090565b620002728162000295565b82525050565b60006020820190506200028f600083018462000267565b92915050565b6000819050919050565b60006002820490506001821680620002b857607f821691505b60208210811415620002cf57620002ce620002d5565b5b50919050565b7f4e487b7100000000000000000000000000000000000000000000000000000000600052602260045260246000fd5b6129f480620003146000396000f3fe608060405234801561001057600080fd5b506004361061012c5760003560e01c806349bca34f116100ad578063a457c2d711610071578063a457c2d71461035d578063a9059cbb1461038d578063cd838f0f146103bd578063dd62ed3e146103db578063eb9d8bd81461040b5761012c565b806349bca34f146102b957806370a08231146102d55780637f98de05146103055780638da5cb5b1461032157806395d89b411461033f5761012c565b80632ead32d2116100f45780632ead32d214610201578063313ce5671461021d578063395093511461023b5780633eaaf86b1461026b57806345e12c8d146102895761012c565b80630178fe3f1461013157806306fdde0314610165578063095ea7b31461018357806318160ddd146101b357806323b872dd146101d1575b600080fd5b61014b60048036038101906101469190612296565b61043b565b60405161015c959493929190612622565b60405180910390f35b61016d610742565b60405161017a91906125c5565b60405180910390f35b61019d600480360381019061019891906121c7565b6107d0565b6040516101aa91906125aa565b60405180910390f35b6101bb6108fb565b6040516101c89190612607565b60405180910390f35b6101eb60048036038101906101e6919061213c565b610905565b6040516101f891906125aa565b60405180910390f35b61021b600480360381019061021691906120d7565b610cba565b005b610225610e20565b6040516102329190612607565b60405180910390f35b610255600480360381019061025091906121c7565b610e26565b60405161026291906125aa565b60405180910390f35b61027361105b565b6040516102809190612607565b60405180910390f35b6102a3600480360381019061029e9190612296565b611061565b6040516102b09190612607565b60405180910390f35b6102d360048036038101906102ce919061218b565b611081565b005b6102ef60048036038101906102ea91906120d7565b6111fc565b6040516102fc9190612607565b60405180910390f35b61031f600480360381019061031a9190612203565b611244565b005b610329611429565b604051610336919061254b565b60405180910390f35b61034761144f565b60405161035491906125c5565b60405180910390f35b610377600480360381019061037291906121c7565b6114dd565b60405161038491906125aa565b60405180910390f35b6103a760048036038101906103a291906121c7565b611712565b6040516103b491906125aa565b60405180910390f35b6103c561192e565b6040516103d29190612566565b60405180910390f35b6103f560048036038101906103f09190612100565b611a07565b6040516104029190612607565b60405180910390f35b61042560048036038101906104209190612296565b611a8e565b6040516104329190612588565b60405180910390f35b60006060806000806009600087815260200190815260200160002060008154811061048f577f4e487b7100000000000000000000000000000000000000000000000000000000600052603260045260246000fd5b906000526020600020906005020160030154600960008881526020019081526020016000206000815481106104ed577f4e487b7100000000000000000000000000000000000000000000000000000000600052603260045260246000fd5b90600052602060002090600502016001016009600089815260200190815260200160002060008154811061054a577f4e487b7100000000000000000000000000000000000000000000000000000000600052603260045260246000fd5b9060005260206000209060050201600201600960008a81526020019081526020016000206000815481106105a7577f4e487b7100000000000000000000000000000000000000000000000000000000600052603260045260246000fd5b906000526020600020906005020160030154600960008b8152602001908152602001600020600081548110610605577f4e487b7100000000000000000000000000000000000000000000000000000000600052603260045260246000fd5b906000526020600020906005020160040154838054610623906128a9565b80601f016020809104026020016040519081016040528092919081815260200182805461064f906128a9565b801561069c5780601f106106715761010080835404028352916020019161069c565b820191906000526020600020905b81548152906001019060200180831161067f57829003601f168201915b505050505093508280546106af906128a9565b80601f01602080910402602001604051908101604052809291908181526020018280546106db906128a9565b80156107285780601f106106fd57610100808354040283529160200191610728565b820191906000526020600020905b81548152906001019060200180831161070b57829003601f168201915b505050505092509450945094509450945091939590929450565b6003805461074f906128a9565b80601f016020809104026020016040519081016040528092919081815260200182805461077b906128a9565b80156107c85780601f1061079d576101008083540402835291602001916107c8565b820191906000526020600020905b8154815290600101906020018083116107ab57829003601f168201915b505050505081565b60008073ffffffffffffffffffffffffffffffffffffffff168373ffffffffffffffffffffffffffffffffffffffff16141561080b57600080fd5b81600160003373ffffffffffffffffffffffffffffffffffffffff1673ffffffffffffffffffffffffffffffffffffffff16815260200190815260200160002060008573ffffffffffffffffffffffffffffffffffffffff1673ffffffffffffffffffffffffffffffffffffffff168152602001908152602001600020819055508273ffffffffffffffffffffffffffffffffffffffff163373ffffffffffffffffffffffffffffffffffffffff167f8c5be1e5ebec7d5bd14f71427d1e84f3dd0314c0f7b2291e5b200ac8c7c3b925846040516108e99190612607565b60405180910390a36001905092915050565b6000600254905090565b60008060008573ffffffffffffffffffffffffffffffffffffffff1673ffffffffffffffffffffffffffffffffffffffff1681526020019081526020016000205482111561095257600080fd5b600160008573ffffffffffffffffffffffffffffffffffffffff1673ffffffffffffffffffffffffffffffffffffffff16815260200190815260200160002060003373ffffffffffffffffffffffffffffffffffffffff1673ffffffffffffffffffffffffffffffffffffffff168152602001908152602001600020548211156109db57600080fd5b600073ffffffffffffffffffffffffffffffffffffffff168373ffffffffffffffffffffffffffffffffffffffff161415610a1557600080fd5b610a66826000808773ffffffffffffffffffffffffffffffffffffffff1673ffffffffffffffffffffffffffffffffffffffff16815260200190815260200160002054611f0990919063ffffffff16565b6000808673ffffffffffffffffffffffffffffffffffffffff1673ffffffffffffffffffffffffffffffffffffffff16815260200190815260200160002081905550610af9826000808673ffffffffffffffffffffffffffffffffffffffff1673ffffffffffffffffffffffffffffffffffffffff16815260200190815260200160002054611f1f90919063ffffffff16565b6000808573ffffffffffffffffffffffffffffffffffffffff1673ffffffffffffffffffffffffffffffffffffffff16815260200190815260200160002081905550610bca82600160008773ffffffffffffffffffffffffffffffffffffffff1673ffffffffffffffffffffffffffffffffffffffff16815260200190815260200160002060003373ffffffffffffffffffffffffffffffffffffffff1673ffffffffffffffffffffffffffffffffffffffff16815260200190815260200160002054611f0990919063ffffffff16565b600160008673ffffffffffffffffffffffffffffffffffffffff1673ffffffffffffffffffffffffffffffffffffffff16815260200190815260200160002060003373ffffffffffffffffffffffffffffffffffffffff1673ffffffffffffffffffffffffffffffffffffffff168152602001908152602001600020819055508273ffffffffffffffffffffffffffffffffffffffff168473ffffffffffffffffffffffffffffffffffffffff167fddf252ad1be2c89b69c2b068fc378daa952ba7f163c4a11628f55a4df523b3ef84604051610ca79190612607565b60405180910390a3600190509392505050565b600860009054906101000a900473ffffffffffffffffffffffffffffffffffffffff1673ffffffffffffffffffffffffffffffffffffffff163373ffffffffffffffffffffffffffffffffffffffff1614610d4a576040517f08c379a0000000000000000000000000000000000000000000000000000000008152600401610d41906125e7565b60405180910390fd5b6000600c60008373ffffffffffffffffffffffffffffffffffffffff1673ffffffffffffffffffffffffffffffffffffffff168152602001908152602001600020819055506001600b60008373ffffffffffffffffffffffffffffffffffffffff1673ffffffffffffffffffffffffffffffffffffffff168152602001908152602001600020541415610e1d576000600c60008373ffffffffffffffffffffffffffffffffffffffff1673ffffffffffffffffffffffffffffffffffffffff168152602001908152602001600020819055505b50565b60055481565b60008073ffffffffffffffffffffffffffffffffffffffff168373ffffffffffffffffffffffffffffffffffffffff161415610e6157600080fd5b610ef082600160003373ffffffffffffffffffffffffffffffffffffffff1673ffffffffffffffffffffffffffffffffffffffff16815260200190815260200160002060008673ffffffffffffffffffffffffffffffffffffffff1673ffffffffffffffffffffffffffffffffffffffff16815260200190815260200160002054611f1f90919063ffffffff16565b600160003373ffffffffffffffffffffffffffffffffffffffff1673ffffffffffffffffffffffffffffffffffffffff16815260200190815260200160002060008573ffffffffffffffffffffffffffffffffffffffff1673ffffffffffffffffffffffffffffffffffffffff168152602001908152602001600020819055508273ffffffffffffffffffffffffffffffffffffffff163373ffffffffffffffffffffffffffffffffffffffff167f8c5be1e5ebec7d5bd14f71427d1e84f3dd0314c0f7b2291e5b200ac8c7c3b925600160003373ffffffffffffffffffffffffffffffffffffffff1673ffffffffffffffffffffffffffffffffffffffff16815260200190815260200160002060008773ffffffffffffffffffffffffffffffffffffffff1673ffffffffffffffffffffffffffffffffffffffff168152602001908152602001600020546040516110499190612607565b60405180910390a36001905092915050565b60025481565b6000600a6000838152602001908152602001600020805490509050919050565b600860009054906101000a900473ffffffffffffffffffffffffffffffffffffffff1673ffffffffffffffffffffffffffffffffffffffff163373ffffffffffffffffffffffffffffffffffffffff1614611111576040517f08c379a0000000000000000000000000000000000000000000000000000000008152600401611108906125e7565b60405180910390fd5b61111c826064611712565b5080156111b2576001600b60008473ffffffffffffffffffffffffffffffffffffffff1673ffffffffffffffffffffffffffffffffffffffff168152602001908152602001600020819055506001600c60008473ffffffffffffffffffffffffffffffffffffffff1673ffffffffffffffffffffffffffffffffffffffff168152602001908152602001600020819055506111f8565b6001600c60008473ffffffffffffffffffffffffffffffffffffffff1673ffffffffffffffffffffffffffffffffffffffff168152602001908152602001600020819055505b5050565b60008060008373ffffffffffffffffffffffffffffffffffffffff1673ffffffffffffffffffffffffffffffffffffffff168152602001908152602001600020549050919050565b6001600b60003373ffffffffffffffffffffffffffffffffffffffff1673ffffffffffffffffffffffffffffffffffffffff168152602001908152602001600020541461129057600080fd5b611298611f35565b33816000019073ffffffffffffffffffffffffffffffffffffffff16908173ffffffffffffffffffffffffffffffffffffffff1681525050848160200181905250838160400181905250828160600181815250508181608001818152505060096000600754815260200190815260200160002081908060018154018082558091505060019003906000526020600020906005020160009091909190915060008201518160000160006101000a81548173ffffffffffffffffffffffffffffffffffffffff021916908373ffffffffffffffffffffffffffffffffffffffff1602179055506020820151816001019080519060200190611398929190611f7a565b5060408201518160020190805190602001906113b5929190611f7a565b5060608201518160030155608082015181600401555050600685908060018154018082558091505060019003906000526020600020016000909190919091509080519060200190611407929190611f7a565b5060016007600082825461141b9190612783565b925050819055505050505050565b600860009054906101000a900473ffffffffffffffffffffffffffffffffffffffff1681565b6004805461145c906128a9565b80601f0160208091040260200160405190810160405280929190818152602001828054611488906128a9565b80156114d55780601f106114aa576101008083540402835291602001916114d5565b820191906000526020600020905b8154815290600101906020018083116114b857829003601f168201915b505050505081565b60008073ffffffffffffffffffffffffffffffffffffffff168373ffffffffffffffffffffffffffffffffffffffff16141561151857600080fd5b6115a782600160003373ffffffffffffffffffffffffffffffffffffffff1673ffffffffffffffffffffffffffffffffffffffff16815260200190815260200160002060008673ffffffffffffffffffffffffffffffffffffffff1673ffffffffffffffffffffffffffffffffffffffff16815260200190815260200160002054611f0990919063ffffffff16565b600160003373ffffffffffffffffffffffffffffffffffffffff1673ffffffffffffffffffffffffffffffffffffffff16815260200190815260200160002060008573ffffffffffffffffffffffffffffffffffffffff1673ffffffffffffffffffffffffffffffffffffffff168152602001908152602001600020819055508273ffffffffffffffffffffffffffffffffffffffff163373ffffffffffffffffffffffffffffffffffffffff167f8c5be1e5ebec7d5bd14f71427d1e84f3dd0314c0f7b2291e5b200ac8c7c3b925600160003373ffffffffffffffffffffffffffffffffffffffff1673ffffffffffffffffffffffffffffffffffffffff16815260200190815260200160002060008773ffffffffffffffffffffffffffffffffffffffff1673ffffffffffffffffffffffffffffffffffffffff168152602001908152602001600020546040516117009190612607565b60405180910390a36001905092915050565b60008060003373ffffffffffffffffffffffffffffffffffffffff1673ffffffffffffffffffffffffffffffffffffffff1681526020019081526020016000205482111561175f57600080fd5b600073ffffffffffffffffffffffffffffffffffffffff168373ffffffffffffffffffffffffffffffffffffffff16141561179957600080fd5b6117ea826000803373ffffffffffffffffffffffffffffffffffffffff1673ffffffffffffffffffffffffffffffffffffffff16815260200190815260200160002054611f0990919063ffffffff16565b6000803373ffffffffffffffffffffffffffffffffffffffff1673ffffffffffffffffffffffffffffffffffffffff1681526020019081526020016000208190555061187d826000808673ffffffffffffffffffffffffffffffffffffffff1673ffffffffffffffffffffffffffffffffffffffff16815260200190815260200160002054611f1f90919063ffffffff16565b6000808573ffffffffffffffffffffffffffffffffffffffff1673ffffffffffffffffffffffffffffffffffffffff168152602001908152602001600020819055508273ffffffffffffffffffffffffffffffffffffffff163373ffffffffffffffffffffffffffffffffffffffff167fddf252ad1be2c89b69c2b068fc378daa952ba7f163c4a11628f55a4df523b3ef8460405161191c9190612607565b60405180910390a36001905092915050565b60606006805480602002602001604051908101604052809291908181526020016000905b828210156119fe578382906000526020600020018054611971906128a9565b80601f016020809104026020016040519081016040528092919081815260200182805461199d906128a9565b80156119ea5780601f106119bf576101008083540402835291602001916119ea565b820191906000526020600020905b8154815290600101906020018083116119cd57829003601f168201915b505050505081526020019060010190611952565b50505050905090565b6000600160008473ffffffffffffffffffffffffffffffffffffffff1673ffffffffffffffffffffffffffffffffffffffff16815260200190815260200160002060008373ffffffffffffffffffffffffffffffffffffffff1673ffffffffffffffffffffffffffffffffffffffff16815260200190815260200160002054905092915050565b60606001600c60003373ffffffffffffffffffffffffffffffffffffffff1673ffffffffffffffffffffffffffffffffffffffff16815260200190815260200160002054148015611b2d5750600860009054906101000a900473ffffffffffffffffffffffffffffffffffffffff1673ffffffffffffffffffffffffffffffffffffffff163373ffffffffffffffffffffffffffffffffffffffff1614155b611b3657600080fd5b60096000838152602001908152602001600020805480602002602001604051908101604052809291908181526020016000905b82821015611d2957838290600052602060002090600502016040518060a00160405290816000820160009054906101000a900473ffffffffffffffffffffffffffffffffffffffff1673ffffffffffffffffffffffffffffffffffffffff1673ffffffffffffffffffffffffffffffffffffffff168152602001600182018054611bf2906128a9565b80601f0160208091040260200160405190810160405280929190818152602001828054611c1e906128a9565b8015611c6b5780601f10611c4057610100808354040283529160200191611c6b565b820191906000526020600020905b815481529060010190602001808311611c4e57829003601f168201915b50505050508152602001600282018054611c84906128a9565b80601f0160208091040260200160405190810160405280929190818152602001828054611cb0906128a9565b8015611cfd5780601f10611cd257610100808354040283529160200191611cfd565b820191906000526020600020905b815481529060010190602001808311611ce057829003601f168201915b505050505081526020016003820154815260200160048201548152505081526020019060010190611b69565b50505050905060096000838152602001908152602001600020600081548110611d7b577f4e487b7100000000000000000000000000000000000000000000000000000000600052603260045260246000fd5b9060005260206000209060050201600401546001600a600085815260200190815260200160002080549050611db09190612783565b1015611f0457611dbe612000565b60018160000151611dcf9190612783565b816000018181525050600a60008481526020019081526020016000208190806001815401808255809150506001900390600052602060002001600090919091909150600082015181600001555050611f0160096000858152602001908152602001600020600081548110611e6c577f4e487b7100000000000000000000000000000000000000000000000000000000600052603260045260246000fd5b906000526020600020906005020160000160009054906101000a900473ffffffffffffffffffffffffffffffffffffffff1660096000868152602001908152602001600020600081548110611eea577f4e487b7100000000000000000000000000000000000000000000000000000000600052603260045260246000fd5b906000526020600020906005020160030154611712565b50505b919050565b60008183611f1791906127d9565b905092915050565b60008183611f2d9190612783565b905092915050565b6040518060a00160405280600073ffffffffffffffffffffffffffffffffffffffff168152602001606081526020016060815260200160008152602001600081525090565b828054611f86906128a9565b90600052602060002090601f016020900481019282611fa85760008555611fef565b82601f10611fc157805160ff1916838001178555611fef565b82800160010185558215611fef579182015b82811115611fee578251825591602001919060010190611fd3565b5b509050611ffc9190612013565b5090565b6040518060200160405280600081525090565b5b8082111561202c576000816000905550600101612014565b5090565b600061204361203e846126b4565b612683565b90508281526020810184848401111561205b57600080fd5b612066848285612867565b509392505050565b60008135905061207d81612979565b92915050565b60008135905061209281612990565b92915050565b600082601f8301126120a957600080fd5b81356120b9848260208601612030565b91505092915050565b6000813590506120d1816129a7565b92915050565b6000602082840312156120e957600080fd5b60006120f78482850161206e565b91505092915050565b6000806040838503121561211357600080fd5b60006121218582860161206e565b92505060206121328582860161206e565b9150509250929050565b60008060006060848603121561215157600080fd5b600061215f8682870161206e565b93505060206121708682870161206e565b9250506040612181868287016120c2565b9150509250925092565b6000806040838503121561219e57600080fd5b60006121ac8582860161206e565b92505060206121bd85828601612083565b9150509250929050565b600080604083850312156121da57600080fd5b60006121e88582860161206e565b92505060206121f9858286016120c2565b9150509250929050565b6000806000806080858703121561221957600080fd5b600085013567ffffffffffffffff81111561223357600080fd5b61223f87828801612098565b945050602085013567ffffffffffffffff81111561225c57600080fd5b61226887828801612098565b9350506040612279878288016120c2565b925050606061228a878288016120c2565b91505092959194509250565b6000602082840312156122a857600080fd5b60006122b6848285016120c2565b91505092915050565b60006122cb83836123fe565b905092915050565b60006122df83836124b0565b905092915050565b6122f08161281f565b82525050565b6122ff8161281f565b82525050565b600061231082612704565b61231a818561273f565b93508360208202850161232c856126e4565b8060005b85811015612368578484038952815161234985826122bf565b945061235483612725565b925060208a01995050600181019050612330565b50829750879550505050505092915050565b60006123858261270f565b61238f8185612750565b9350836020820285016123a1856126f4565b8060005b858110156123dd57848403895281516123be85826122d3565b94506123c983612732565b925060208a019950506001810190506123a5565b50829750879550505050505092915050565b6123f881612831565b82525050565b60006124098261271a565b6124138185612761565b9350612423818560208601612876565b61242c81612968565b840191505092915050565b60006124428261271a565b61244c8185612772565b935061245c818560208601612876565b61246581612968565b840191505092915050565b600061247d600983612772565b91507f6f6e6c7941646d696e00000000000000000000000000000000000000000000006000830152602082019050919050565b600060a0830160008301516124c860008601826122e7565b50602083015184820360208601526124e082826123fe565b915050604083015184820360408601526124fa82826123fe565b915050606083015161250f606086018261252d565b506080830151612522608086018261252d565b508091505092915050565b6125368161285d565b82525050565b6125458161285d565b82525050565b600060208201905061256060008301846122f6565b92915050565b600060208201905081810360008301526125808184612305565b905092915050565b600060208201905081810360008301526125a2818461237a565b905092915050565b60006020820190506125bf60008301846123ef565b92915050565b600060208201905081810360008301526125df8184612437565b905092915050565b6000602082019050818103600083015261260081612470565b9050919050565b600060208201905061261c600083018461253c565b92915050565b600060a082019050612637600083018861253c565b81810360208301526126498187612437565b9050818103604083015261265d8186612437565b905061266c606083018561253c565b612679608083018461253c565b9695505050505050565b6000604051905081810181811067ffffffffffffffff821117156126aa576126a9612939565b5b8060405250919050565b600067ffffffffffffffff8211156126cf576126ce612939565b5b601f19601f8301169050602081019050919050565b6000819050602082019050919050565b6000819050602082019050919050565b600081519050919050565b600081519050919050565b600081519050919050565b6000602082019050919050565b6000602082019050919050565b600082825260208201905092915050565b600082825260208201905092915050565b600082825260208201905092915050565b600082825260208201905092915050565b600061278e8261285d565b91506127998361285d565b9250827fffffffffffffffffffffffffffffffffffffffffffffffffffffffffffffffff038211156127ce576127cd6128db565b5b828201905092915050565b60006127e48261285d565b91506127ef8361285d565b925082821015612802576128016128db565b5b828203905092915050565b60006128188261283d565b9050919050565b600061282a8261283d565b9050919050565b60008115159050919050565b600073ffffffffffffffffffffffffffffffffffffffff82169050919050565b6000819050919050565b82818337600083830152505050565b60005b83811015612894578082015181840152602081019050612879565b838111156128a3576000848401525b50505050565b600060028204905060018216806128c157607f821691505b602082108114156128d5576128d461290a565b5b50919050565b7f4e487b7100000000000000000000000000000000000000000000000000000000600052601160045260246000fd5b7f4e487b7100000000000000000000000000000000000000000000000000000000600052602260045260246000fd5b7f4e487b7100000000000000000000000000000000000000000000000000000000600052604160045260246000fd5b6000601f19601f8301169050919050565b6129828161280d565b811461298d57600080fd5b50565b61299981612831565b81146129a457600080fd5b50565b6129b08161285d565b81146129bb57600080fd5b5056fea2646970667358221220d9b492bd0963f864a42de5f04a6ef5dae1d5e3e483fc77b165be30ec4bdf2e1564736f6c63430008000033",
  "immutableReferences": {},
  "source": "// SPDX-License-Identifier: GPL-3.0\n\npragma solidity ^0.8.0;\n//pragma experimental ABIEncoderV2; \n//import \"https://github.com/OpenZeppelin/openzeppelin-contracts/blob/master/contracts/utils/math/SafeMath.sol\";\nimport \"@openzeppelin/contracts/utils/math/SafeMath.sol\";\n\ninterface IERC20 {\n  function totalSupply() external view returns (uint256);\n\n  function balanceOf(address who) external view returns (uint256);\n\n  function allowance(address owner, address spender)\n    external view returns (uint256);\n\n  function transfer(address to, uint256 value) external returns (bool);\n\n  function approve(address spender, uint256 value)\n    external returns (bool);\n\n  function transferFrom(address from, address to, uint256 value)\n    external returns (bool);\n\n  event Transfer(\n    address indexed from,\n    address indexed to,\n    uint256 value\n  );\n\n  event Approval(\n    address indexed owner,\n    address indexed spender,\n    uint256 value\n  );\n}\n\n\n\ncontract RSM is IERC20 {\n  using SafeMath for uint256;\n  mapping (address => uint256) _balances;\n  mapping (address => mapping (address => uint256)) _allowed;\n  \n  uint256 public _totalSupply;\n  string public name;\n  string public symbol;\n  uint public decimals;\n  \n  constructor() {\n  name = \"Royalty\";\n  symbol = \"RSM\";\n  decimals = 0;\n  _totalSupply = 100000000;\n  _balances[msg.sender] = _totalSupply;\n  emit Transfer(address(0), msg.sender, _totalSupply);\n  }\n\n  /**\n  * @dev Total number of tokens in existence\n  */\n  function totalSupply() public override view returns (uint256) {\n    return _totalSupply;\n  }\n\n  /**\n  * @dev Gets the balance of the specified address.\n  * @param owner The address to query the balance of.\n  * @return An uint256 representing the amount owned by the passed address.\n  */\n  function balanceOf(address owner) public override view returns (uint256) {\n    return _balances[owner];\n  }\n\n  /**\n   * @dev Function to check the amount of tokens that an owner allowed to a spender.\n   * @param owner address The address which owns the funds.\n   * @param spender address The address which will spend the funds.\n   * @return A uint256 specifying the amount of tokens still available for the spender.\n   */\n  function allowance(address owner,address spender)public override view returns (uint256)\n  {\n    return _allowed[owner][spender];\n  }\n\n  /**\n  * @dev Transfer token for a specified address\n  * @param to The address to transfer to.\n  * @param value The amount to be transferred.\n  */\n  function transfer(address to, uint256 value) public override returns (bool) {\n    require(value <= _balances[msg.sender]);\n    require(to != address(0));\n\n    _balances[msg.sender] = _balances[msg.sender].sub(value);\n    _balances[to] = _balances[to].add(value);\n    emit Transfer(msg.sender, to, value);\n    return true;\n  }\n\n \n  function approve(address spender, uint256 value) public override returns (bool) {\n    require(spender != address(0));\n\n    _allowed[msg.sender][spender] = value;\n    emit Approval(msg.sender, spender, value);\n    return true;\n  }\n\n\n  function transferFrom(address from, address to, uint256 value) public override returns (bool)\n  {\n    require(value <= _balances[from]);\n    require(value <= _allowed[from][msg.sender]);\n    require(to != address(0));\n\n    _balances[from] = _balances[from].sub(value);\n    _balances[to] = _balances[to].add(value);\n    _allowed[from][msg.sender] = _allowed[from][msg.sender].sub(value);\n    emit Transfer(from, to, value);\n    return true;\n  }\n\n  function increaseAllowance(address spender, uint256 addedValue)public returns (bool)\n  {\n    require(spender != address(0));\n\n    _allowed[msg.sender][spender] = (\n      _allowed[msg.sender][spender].add(addedValue));\n    emit Approval(msg.sender, spender, _allowed[msg.sender][spender]);\n    return true;\n  }\n\n \n  function decreaseAllowance(address spender, uint256 subtractedValue)public returns (bool)\n  {\n    require(spender != address(0));\n\n    _allowed[msg.sender][spender] = (\n      _allowed[msg.sender][spender].sub(subtractedValue));\n    emit Approval(msg.sender, spender, _allowed[msg.sender][spender]);\n    return true;\n  }\n  \n  function _mint(address account, uint256 amount) internal {\n    require(account != address(0));\n    _totalSupply = _totalSupply.add(amount);\n    _balances[account] = _balances[account].add(amount);\n    emit Transfer(address(0), account, amount);\n  }\n\n  function _burn(address account, uint256 amount) internal {\n    require(account != address(0));\n    require(amount <= _balances[account]);\n\n    _totalSupply = _totalSupply.sub(amount);\n    _balances[account] = _balances[account].sub(amount);\n    emit Transfer(account, address(0), amount);\n  }\n\n  function _burnFrom(address account, uint256 amount) internal {\n    require(amount <= _allowed[account][msg.sender]);\n    _allowed[account][msg.sender] = _allowed[account][msg.sender].sub(\n      amount);\n    _burn(account, amount);\n  }\n  \n}\n\ncontract Royalties is RSM {\n    \n    // Talent struct to save the data related to Talent\n    struct Talent{\n        address payable by;\n        string name;\n        string description;\n        uint cost;\n        uint limit;\n    }\n    \n    // Saves the number of times the Talent has been used\n    struct TimesUsed {\n        uint times;\n    }\n    \n    // To save the names of all talent pieces\n    string[] TPNames;\n\n    uint count;\n    \n    \n    address payable public owner;\n    mapping(uint => Talent[]) data;\n    mapping(uint => TimesUsed[]) TU;\n    mapping (address=>uint) TalentPieceOwner;\n    mapping (address=>uint) TalentPieceUsers;\n    mapping(address=> uint) balances;\n    \n    \n    constructor() {\n        owner = payable(msg.sender);\n    }\n    \n    // Modifier to restrict function use to only admin   \n    modifier onlyAdmin{\n        require(msg.sender==owner,'onlyAdmin');\n        _;\n    }\n    \n    // Modifier to restrict function use to only Talent Piece Owner\n    modifier onlyTalentPieceOwner { \n        require(TalentPieceOwner[msg.sender]==1);\n        _;\n    }\n    \n    // Modifier to restrict function use to only user\n    modifier onlyUser {\n        require(TalentPieceUsers[msg.sender]==1 && msg.sender!=owner);\n        _;\n    }\n    \n    // Function to register a Talent Piece Owner and can be called only by admin\n    function registerTalentPieceOwner(address role, bool talentOwner) public onlyAdmin {\n        transfer(role, 100);\n        if(talentOwner) {\n            TalentPieceOwner[role] = 1;\n            TalentPieceUsers[role] = 1;\n        }\n        else\n            TalentPieceUsers[role] = 1;\n    }\n    \n    // Function to create a Talent Piece which can be called only by a Talent Piece Owner\n    function createTalentPiece(string memory name,string memory description, uint cost, uint limit) public onlyTalentPieceOwner {\n            Talent memory piece;\n            //TPNames memory TTT;\n            piece.by = payable(msg.sender);\n            piece.name = name;\n            piece.description = description;\n            piece.cost = cost;\n            piece.limit = limit;\n            data[count].push(piece);\n            \n            TPNames.push(name);\n            \n            count+=1;\n    }\n    \n    // To use Talent Piece which can be used only by a user\n    function useTalentPiece(uint number) public onlyUser returns (Talent[] memory show) {\n        show = data[number];\n        if(TU[number].length+1 < data[number][0].limit) {\n            TimesUsed memory T;\n            T.times=T.times+1;\n            TU[number].push(T);\n            transfer(data[number][0].by, data[number][0].cost);\n        }\n    }\n    \n    // To check how many times a talent has been used\n    function numberOfTimesUsed(uint number) view public returns (uint used) {\n        used = TU[number].length;\n    } \n    \n    // To check the data of a Talent\n    //function getData(uint number) view public returns (Talent[] memory c){\n    //    c = data[number];\n    //}\n\n    function getData(uint number) view public returns (uint256, string memory, string memory, uint, uint){\n      //string storage k = abi.encodePacked(data[number][0].by);\n        return (data[number][0].cost, data[number][0].name, data[number][0].description, data[number][0].cost, data[number][0].limit);\n    }\n    \n    // To get all the names of the talents created\n    function getNames() view public returns (string[] memory){\n        return TPNames;\n    }\n    \n    // To unregister a user\n    function unregisterTalentPieceOwner(address Towner) public onlyAdmin {\n        TalentPieceUsers[Towner] = 0;\n        if(TalentPieceOwner[Towner] == 1) {\n            TalentPieceUsers[Towner] = 0;\n        }\n    }\n}",
  "sourcePath": "/Users/viswaniharnukala/Documents/Courses/Blockchain/RSM/rsm-contract/contracts/RSM.sol",
  "compiler": {
    "name": "solc",
    "version": "0.8.0+commit.c7dfd78e.Emscripten.clang"
  },
  "schemaVersion": "3.4.3",
  "updatedAt": "2021-12-05T16:38:41.267Z",
  "networkType": "ethereum",
  "devdoc": {
    "kind": "dev",
    "methods": {
      "allowance(address,address)": {
        "details": "Function to check the amount of tokens that an owner allowed to a spender.",
        "params": {
          "owner": "address The address which owns the funds.",
          "spender": "address The address which will spend the funds."
        },
        "returns": {
          "_0": "A uint256 specifying the amount of tokens still available for the spender."
        }
      },
      "balanceOf(address)": {
        "details": "Gets the balance of the specified address.",
        "params": {
          "owner": "The address to query the balance of."
        },
        "returns": {
          "_0": "An uint256 representing the amount owned by the passed address."
        }
      },
      "totalSupply()": {
        "details": "Total number of tokens in existence"
      },
      "transfer(address,uint256)": {
        "details": "Transfer token for a specified address",
        "params": {
          "to": "The address to transfer to.",
          "value": "The amount to be transferred."
        }
      }
    },
    "version": 1
  },
  "userdoc": {
    "kind": "user",
    "methods": {},
    "version": 1
  }
}