{
  "contractName": "RSM",
  "abi": [
    {
      "inputs": [],
      "stateMutability": "nonpayable",
      "type": "constructor"
    },
    {
      "anonymous": false,
      "inputs": [
        {
          "indexed": true,
          "internalType": "address",
          "name": "owner",
          "type": "address"
        },
        {
          "indexed": true,
          "internalType": "address",
          "name": "spender",
          "type": "address"
        },
        {
          "indexed": false,
          "internalType": "uint256",
          "name": "value",
          "type": "uint256"
        }
      ],
      "name": "Approval",
      "type": "event"
    },
    {
      "anonymous": false,
      "inputs": [
        {
          "indexed": true,
          "internalType": "address",
          "name": "from",
          "type": "address"
        },
        {
          "indexed": true,
          "internalType": "address",
          "name": "to",
          "type": "address"
        },
        {
          "indexed": false,
          "internalType": "uint256",
          "name": "value",
          "type": "uint256"
        }
      ],
      "name": "Transfer",
      "type": "event"
    },
    {
      "inputs": [],
      "name": "_totalSupply",
      "outputs": [
        {
          "internalType": "uint256",
          "name": "",
          "type": "uint256"
        }
      ],
      "stateMutability": "view",
      "type": "function"
    },
    {
      "inputs": [],
      "name": "decimals",
      "outputs": [
        {
          "internalType": "uint256",
          "name": "",
          "type": "uint256"
        }
      ],
      "stateMutability": "view",
      "type": "function"
    },
    {
      "inputs": [],
      "name": "name",
      "outputs": [
        {
          "internalType": "string",
          "name": "",
          "type": "string"
        }
      ],
      "stateMutability": "view",
      "type": "function"
    },
    {
      "inputs": [],
      "name": "symbol",
      "outputs": [
        {
          "internalType": "string",
          "name": "",
          "type": "string"
        }
      ],
      "stateMutability": "view",
      "type": "function"
    },
    {
      "inputs": [],
      "name": "totalSupply",
      "outputs": [
        {
          "internalType": "uint256",
          "name": "",
          "type": "uint256"
        }
      ],
      "stateMutability": "view",
      "type": "function"
    },
    {
      "inputs": [
        {
          "internalType": "address",
          "name": "owner",
          "type": "address"
        }
      ],
      "name": "balanceOf",
      "outputs": [
        {
          "internalType": "uint256",
          "name": "",
          "type": "uint256"
        }
      ],
      "stateMutability": "view",
      "type": "function"
    },
    {
      "inputs": [
        {
          "internalType": "address",
          "name": "owner",
          "type": "address"
        },
        {
          "internalType": "address",
          "name": "spender",
          "type": "address"
        }
      ],
      "name": "allowance",
      "outputs": [
        {
          "internalType": "uint256",
          "name": "",
          "type": "uint256"
        }
      ],
      "stateMutability": "view",
      "type": "function"
    },
    {
      "inputs": [
        {
          "internalType": "address",
          "name": "to",
          "type": "address"
        },
        {
          "internalType": "uint256",
          "name": "value",
          "type": "uint256"
        }
      ],
      "name": "transfer",
      "outputs": [
        {
          "internalType": "bool",
          "name": "",
          "type": "bool"
        }
      ],
      "stateMutability": "nonpayable",
      "type": "function"
    },
    {
      "inputs": [
        {
          "internalType": "address",
          "name": "spender",
          "type": "address"
        },
        {
          "internalType": "uint256",
          "name": "value",
          "type": "uint256"
        }
      ],
      "name": "approve",
      "outputs": [
        {
          "internalType": "bool",
          "name": "",
          "type": "bool"
        }
      ],
      "stateMutability": "nonpayable",
      "type": "function"
    },
    {
      "inputs": [
        {
          "internalType": "address",
          "name": "from",
          "type": "address"
        },
        {
          "internalType": "address",
          "name": "to",
          "type": "address"
        },
        {
          "internalType": "uint256",
          "name": "value",
          "type": "uint256"
        }
      ],
      "name": "transferFrom",
      "outputs": [
        {
          "internalType": "bool",
          "name": "",
          "type": "bool"
        }
      ],
      "stateMutability": "nonpayable",
      "type": "function"
    },
    {
      "inputs": [
        {
          "internalType": "address",
          "name": "spender",
          "type": "address"
        },
        {
          "internalType": "uint256",
          "name": "addedValue",
          "type": "uint256"
        }
      ],
      "name": "increaseAllowance",
      "outputs": [
        {
          "internalType": "bool",
          "name": "",
          "type": "bool"
        }
      ],
      "stateMutability": "nonpayable",
      "type": "function"
    },
    {
      "inputs": [
        {
          "internalType": "address",
          "name": "spender",
          "type": "address"
        },
        {
          "internalType": "uint256",
          "name": "subtractedValue",
          "type": "uint256"
        }
      ],
      "name": "decreaseAllowance",
      "outputs": [
        {
          "internalType": "bool",
          "name": "",
          "type": "bool"
        }
      ],
      "stateMutability": "nonpayable",
      "type": "function"
    }
  ],
  "bytecode": "0x60806040523480156200001157600080fd5b506040518060400160405280600781526020017f526f79616c747900000000000000000000000000000000000000000000000000815250600390805190602001906200005f92919062000176565b506040518060400160405280600381526020017f52534d000000000000000000000000000000000000000000000000000000000081525060049080519060200190620000ad92919062000176565b5060006005819055506305f5e1006002819055506002546000803373ffffffffffffffffffffffffffffffffffffffff1673ffffffffffffffffffffffffffffffffffffffff168152602001908152602001600020819055503373ffffffffffffffffffffffffffffffffffffffff16600073ffffffffffffffffffffffffffffffffffffffff167fddf252ad1be2c89b69c2b068fc378daa952ba7f163c4a11628f55a4df523b3ef60025460405162000168919062000237565b60405180910390a3620002c3565b82805462000184906200025e565b90600052602060002090601f016020900481019282620001a85760008555620001f4565b82601f10620001c357805160ff1916838001178555620001f4565b82800160010185558215620001f4579182015b82811115620001f3578251825591602001919060010190620001d6565b5b50905062000203919062000207565b5090565b5b808211156200022257600081600090555060010162000208565b5090565b620002318162000254565b82525050565b60006020820190506200024e600083018462000226565b92915050565b6000819050919050565b600060028204905060018216806200027757607f821691505b602082108114156200028e576200028d62000294565b5b50919050565b7f4e487b7100000000000000000000000000000000000000000000000000000000600052602260045260246000fd5b61142180620002d36000396000f3fe608060405234801561001057600080fd5b50600436106100b45760003560e01c80633eaaf86b116100715780633eaaf86b146101a357806370a08231146101c157806395d89b41146101f1578063a457c2d71461020f578063a9059cbb1461023f578063dd62ed3e1461026f576100b4565b806306fdde03146100b9578063095ea7b3146100d757806318160ddd1461010757806323b872dd14610125578063313ce567146101555780633950935114610173575b600080fd5b6100c161029f565b6040516100ce91906111be565b60405180910390f35b6100f160048036038101906100ec9190611110565b61032d565b6040516100fe91906111a3565b60405180910390f35b61010f610458565b60405161011c91906111e0565b60405180910390f35b61013f600480360381019061013a91906110c1565b610462565b60405161014c91906111a3565b60405180910390f35b61015d610817565b60405161016a91906111e0565b60405180910390f35b61018d60048036038101906101889190611110565b61081d565b60405161019a91906111a3565b60405180910390f35b6101ab610a52565b6040516101b891906111e0565b60405180910390f35b6101db60048036038101906101d6919061105c565b610a58565b6040516101e891906111e0565b60405180910390f35b6101f9610aa0565b60405161020691906111be565b60405180910390f35b61022960048036038101906102249190611110565b610b2e565b60405161023691906111a3565b60405180910390f35b61025960048036038101906102549190611110565b610d63565b60405161026691906111a3565b60405180910390f35b61028960048036038101906102849190611085565b610f7f565b60405161029691906111e0565b60405180910390f35b600380546102ac9061131c565b80601f01602080910402602001604051908101604052809291908181526020018280546102d89061131c565b80156103255780601f106102fa57610100808354040283529160200191610325565b820191906000526020600020905b81548152906001019060200180831161030857829003601f168201915b505050505081565b60008073ffffffffffffffffffffffffffffffffffffffff168373ffffffffffffffffffffffffffffffffffffffff16141561036857600080fd5b81600160003373ffffffffffffffffffffffffffffffffffffffff1673ffffffffffffffffffffffffffffffffffffffff16815260200190815260200160002060008573ffffffffffffffffffffffffffffffffffffffff1673ffffffffffffffffffffffffffffffffffffffff168152602001908152602001600020819055508273ffffffffffffffffffffffffffffffffffffffff163373ffffffffffffffffffffffffffffffffffffffff167f8c5be1e5ebec7d5bd14f71427d1e84f3dd0314c0f7b2291e5b200ac8c7c3b9258460405161044691906111e0565b60405180910390a36001905092915050565b6000600254905090565b60008060008573ffffffffffffffffffffffffffffffffffffffff1673ffffffffffffffffffffffffffffffffffffffff168152602001908152602001600020548211156104af57600080fd5b600160008573ffffffffffffffffffffffffffffffffffffffff1673ffffffffffffffffffffffffffffffffffffffff16815260200190815260200160002060003373ffffffffffffffffffffffffffffffffffffffff1673ffffffffffffffffffffffffffffffffffffffff1681526020019081526020016000205482111561053857600080fd5b600073ffffffffffffffffffffffffffffffffffffffff168373ffffffffffffffffffffffffffffffffffffffff16141561057257600080fd5b6105c3826000808773ffffffffffffffffffffffffffffffffffffffff1673ffffffffffffffffffffffffffffffffffffffff1681526020019081526020016000205461100690919063ffffffff16565b6000808673ffffffffffffffffffffffffffffffffffffffff1673ffffffffffffffffffffffffffffffffffffffff16815260200190815260200160002081905550610656826000808673ffffffffffffffffffffffffffffffffffffffff1673ffffffffffffffffffffffffffffffffffffffff1681526020019081526020016000205461101c90919063ffffffff16565b6000808573ffffffffffffffffffffffffffffffffffffffff1673ffffffffffffffffffffffffffffffffffffffff1681526020019081526020016000208190555061072782600160008773ffffffffffffffffffffffffffffffffffffffff1673ffffffffffffffffffffffffffffffffffffffff16815260200190815260200160002060003373ffffffffffffffffffffffffffffffffffffffff1673ffffffffffffffffffffffffffffffffffffffff1681526020019081526020016000205461100690919063ffffffff16565b600160008673ffffffffffffffffffffffffffffffffffffffff1673ffffffffffffffffffffffffffffffffffffffff16815260200190815260200160002060003373ffffffffffffffffffffffffffffffffffffffff1673ffffffffffffffffffffffffffffffffffffffff168152602001908152602001600020819055508273ffffffffffffffffffffffffffffffffffffffff168473ffffffffffffffffffffffffffffffffffffffff167fddf252ad1be2c89b69c2b068fc378daa952ba7f163c4a11628f55a4df523b3ef8460405161080491906111e0565b60405180910390a3600190509392505050565b60055481565b60008073ffffffffffffffffffffffffffffffffffffffff168373ffffffffffffffffffffffffffffffffffffffff16141561085857600080fd5b6108e782600160003373ffffffffffffffffffffffffffffffffffffffff1673ffffffffffffffffffffffffffffffffffffffff16815260200190815260200160002060008673ffffffffffffffffffffffffffffffffffffffff1673ffffffffffffffffffffffffffffffffffffffff1681526020019081526020016000205461101c90919063ffffffff16565b600160003373ffffffffffffffffffffffffffffffffffffffff1673ffffffffffffffffffffffffffffffffffffffff16815260200190815260200160002060008573ffffffffffffffffffffffffffffffffffffffff1673ffffffffffffffffffffffffffffffffffffffff168152602001908152602001600020819055508273ffffffffffffffffffffffffffffffffffffffff163373ffffffffffffffffffffffffffffffffffffffff167f8c5be1e5ebec7d5bd14f71427d1e84f3dd0314c0f7b2291e5b200ac8c7c3b925600160003373ffffffffffffffffffffffffffffffffffffffff1673ffffffffffffffffffffffffffffffffffffffff16815260200190815260200160002060008773ffffffffffffffffffffffffffffffffffffffff1673ffffffffffffffffffffffffffffffffffffffff16815260200190815260200160002054604051610a4091906111e0565b60405180910390a36001905092915050565b60025481565b60008060008373ffffffffffffffffffffffffffffffffffffffff1673ffffffffffffffffffffffffffffffffffffffff168152602001908152602001600020549050919050565b60048054610aad9061131c565b80601f0160208091040260200160405190810160405280929190818152602001828054610ad99061131c565b8015610b265780601f10610afb57610100808354040283529160200191610b26565b820191906000526020600020905b815481529060010190602001808311610b0957829003601f168201915b505050505081565b60008073ffffffffffffffffffffffffffffffffffffffff168373ffffffffffffffffffffffffffffffffffffffff161415610b6957600080fd5b610bf882600160003373ffffffffffffffffffffffffffffffffffffffff1673ffffffffffffffffffffffffffffffffffffffff16815260200190815260200160002060008673ffffffffffffffffffffffffffffffffffffffff1673ffffffffffffffffffffffffffffffffffffffff1681526020019081526020016000205461100690919063ffffffff16565b600160003373ffffffffffffffffffffffffffffffffffffffff1673ffffffffffffffffffffffffffffffffffffffff16815260200190815260200160002060008573ffffffffffffffffffffffffffffffffffffffff1673ffffffffffffffffffffffffffffffffffffffff168152602001908152602001600020819055508273ffffffffffffffffffffffffffffffffffffffff163373ffffffffffffffffffffffffffffffffffffffff167f8c5be1e5ebec7d5bd14f71427d1e84f3dd0314c0f7b2291e5b200ac8c7c3b925600160003373ffffffffffffffffffffffffffffffffffffffff1673ffffffffffffffffffffffffffffffffffffffff16815260200190815260200160002060008773ffffffffffffffffffffffffffffffffffffffff1673ffffffffffffffffffffffffffffffffffffffff16815260200190815260200160002054604051610d5191906111e0565b60405180910390a36001905092915050565b60008060003373ffffffffffffffffffffffffffffffffffffffff1673ffffffffffffffffffffffffffffffffffffffff16815260200190815260200160002054821115610db057600080fd5b600073ffffffffffffffffffffffffffffffffffffffff168373ffffffffffffffffffffffffffffffffffffffff161415610dea57600080fd5b610e3b826000803373ffffffffffffffffffffffffffffffffffffffff1673ffffffffffffffffffffffffffffffffffffffff1681526020019081526020016000205461100690919063ffffffff16565b6000803373ffffffffffffffffffffffffffffffffffffffff1673ffffffffffffffffffffffffffffffffffffffff16815260200190815260200160002081905550610ece826000808673ffffffffffffffffffffffffffffffffffffffff1673ffffffffffffffffffffffffffffffffffffffff1681526020019081526020016000205461101c90919063ffffffff16565b6000808573ffffffffffffffffffffffffffffffffffffffff1673ffffffffffffffffffffffffffffffffffffffff168152602001908152602001600020819055508273ffffffffffffffffffffffffffffffffffffffff163373ffffffffffffffffffffffffffffffffffffffff167fddf252ad1be2c89b69c2b068fc378daa952ba7f163c4a11628f55a4df523b3ef84604051610f6d91906111e0565b60405180910390a36001905092915050565b6000600160008473ffffffffffffffffffffffffffffffffffffffff1673ffffffffffffffffffffffffffffffffffffffff16815260200190815260200160002060008373ffffffffffffffffffffffffffffffffffffffff1673ffffffffffffffffffffffffffffffffffffffff16815260200190815260200160002054905092915050565b60008183611014919061126d565b905092915050565b6000818361102a9190611217565b905092915050565b600081359050611041816113bd565b92915050565b600081359050611056816113d4565b92915050565b60006020828403121561106e57600080fd5b600061107c84828501611032565b91505092915050565b6000806040838503121561109857600080fd5b60006110a685828601611032565b92505060206110b785828601611032565b9150509250929050565b6000806000606084860312156110d657600080fd5b60006110e486828701611032565b93505060206110f586828701611032565b925050604061110686828701611047565b9150509250925092565b6000806040838503121561112357600080fd5b600061113185828601611032565b925050602061114285828601611047565b9150509250929050565b611155816112b3565b82525050565b6000611166826111fb565b6111708185611206565b93506111808185602086016112e9565b611189816113ac565b840191505092915050565b61119d816112df565b82525050565b60006020820190506111b8600083018461114c565b92915050565b600060208201905081810360008301526111d8818461115b565b905092915050565b60006020820190506111f56000830184611194565b92915050565b600081519050919050565b600082825260208201905092915050565b6000611222826112df565b915061122d836112df565b9250827fffffffffffffffffffffffffffffffffffffffffffffffffffffffffffffffff038211156112625761126161134e565b5b828201905092915050565b6000611278826112df565b9150611283836112df565b9250828210156112965761129561134e565b5b828203905092915050565b60006112ac826112bf565b9050919050565b60008115159050919050565b600073ffffffffffffffffffffffffffffffffffffffff82169050919050565b6000819050919050565b60005b838110156113075780820151818401526020810190506112ec565b83811115611316576000848401525b50505050565b6000600282049050600182168061133457607f821691505b602082108114156113485761134761137d565b5b50919050565b7f4e487b7100000000000000000000000000000000000000000000000000000000600052601160045260246000fd5b7f4e487b7100000000000000000000000000000000000000000000000000000000600052602260045260246000fd5b6000601f19601f8301169050919050565b6113c6816112a1565b81146113d157600080fd5b50565b6113dd816112df565b81146113e857600080fd5b5056fea264697066735822122010edc81116c49d8fe0e09a6aaa196981ad4a3663c717a2e0c17f247a3cfe5ecb64736f6c63430008000033",
  "immutableReferences": {},
  "source": "// SPDX-License-Identifier: GPL-3.0\n\npragma solidity ^0.8.0;\n//pragma experimental ABIEncoderV2; \n//import \"https://github.com/OpenZeppelin/openzeppelin-contracts/blob/master/contracts/utils/math/SafeMath.sol\";\nimport \"@openzeppelin/contracts/utils/math/SafeMath.sol\";\n\ninterface IERC20 {\n  function totalSupply() external view returns (uint256);\n\n  function balanceOf(address who) external view returns (uint256);\n\n  function allowance(address owner, address spender)\n    external view returns (uint256);\n\n  function transfer(address to, uint256 value) external returns (bool);\n\n  function approve(address spender, uint256 value)\n    external returns (bool);\n\n  function transferFrom(address from, address to, uint256 value)\n    external returns (bool);\n\n  event Transfer(\n    address indexed from,\n    address indexed to,\n    uint256 value\n  );\n\n  event Approval(\n    address indexed owner,\n    address indexed spender,\n    uint256 value\n  );\n}\n\n\n\ncontract RSM is IERC20 {\n  using SafeMath for uint256;\n  mapping (address => uint256) _balances;\n  mapping (address => mapping (address => uint256)) _allowed;\n  \n  uint256 public _totalSupply;\n  string public name;\n  string public symbol;\n  uint public decimals;\n  \n  constructor() {\n  name = \"Royalty\";\n  symbol = \"RSM\";\n  decimals = 0;\n  _totalSupply = 100000000;\n  _balances[msg.sender] = _totalSupply;\n  emit Transfer(address(0), msg.sender, _totalSupply);\n  }\n\n  /**\n  * @dev Total number of tokens in existence\n  */\n  function totalSupply() public override view returns (uint256) {\n    return _totalSupply;\n  }\n\n  /**\n  * @dev Gets the balance of the specified address.\n  * @param owner The address to query the balance of.\n  * @return An uint256 representing the amount owned by the passed address.\n  */\n  function balanceOf(address owner) public override view returns (uint256) {\n    return _balances[owner];\n  }\n\n  /**\n   * @dev Function to check the amount of tokens that an owner allowed to a spender.\n   * @param owner address The address which owns the funds.\n   * @param spender address The address which will spend the funds.\n   * @return A uint256 specifying the amount of tokens still available for the spender.\n   */\n  function allowance(address owner,address spender)public override view returns (uint256)\n  {\n    return _allowed[owner][spender];\n  }\n\n  /**\n  * @dev Transfer token for a specified address\n  * @param to The address to transfer to.\n  * @param value The amount to be transferred.\n  */\n  function transfer(address to, uint256 value) public override returns (bool) {\n    require(value <= _balances[msg.sender]);\n    require(to != address(0));\n\n    _balances[msg.sender] = _balances[msg.sender].sub(value);\n    _balances[to] = _balances[to].add(value);\n    emit Transfer(msg.sender, to, value);\n    return true;\n  }\n\n \n  function approve(address spender, uint256 value) public override returns (bool) {\n    require(spender != address(0));\n\n    _allowed[msg.sender][spender] = value;\n    emit Approval(msg.sender, spender, value);\n    return true;\n  }\n\n\n  function transferFrom(address from, address to, uint256 value) public override returns (bool)\n  {\n    require(value <= _balances[from]);\n    require(value <= _allowed[from][msg.sender]);\n    require(to != address(0));\n\n    _balances[from] = _balances[from].sub(value);\n    _balances[to] = _balances[to].add(value);\n    _allowed[from][msg.sender] = _allowed[from][msg.sender].sub(value);\n    emit Transfer(from, to, value);\n    return true;\n  }\n\n  function increaseAllowance(address spender, uint256 addedValue)public returns (bool)\n  {\n    require(spender != address(0));\n\n    _allowed[msg.sender][spender] = (\n      _allowed[msg.sender][spender].add(addedValue));\n    emit Approval(msg.sender, spender, _allowed[msg.sender][spender]);\n    return true;\n  }\n\n \n  function decreaseAllowance(address spender, uint256 subtractedValue)public returns (bool)\n  {\n    require(spender != address(0));\n\n    _allowed[msg.sender][spender] = (\n      _allowed[msg.sender][spender].sub(subtractedValue));\n    emit Approval(msg.sender, spender, _allowed[msg.sender][spender]);\n    return true;\n  }\n  \n  function _mint(address account, uint256 amount) internal {\n    require(account != address(0));\n    _totalSupply = _totalSupply.add(amount);\n    _balances[account] = _balances[account].add(amount);\n    emit Transfer(address(0), account, amount);\n  }\n\n  function _burn(address account, uint256 amount) internal {\n    require(account != address(0));\n    require(amount <= _balances[account]);\n\n    _totalSupply = _totalSupply.sub(amount);\n    _balances[account] = _balances[account].sub(amount);\n    emit Transfer(account, address(0), amount);\n  }\n\n  function _burnFrom(address account, uint256 amount) internal {\n    require(amount <= _allowed[account][msg.sender]);\n    _allowed[account][msg.sender] = _allowed[account][msg.sender].sub(\n      amount);\n    _burn(account, amount);\n  }\n  \n}\n\ncontract Royalties is RSM {\n    \n    // Talent struct to save the data related to Talent\n    struct Talent{\n        address payable by;\n        string name;\n        string description;\n        uint cost;\n        uint limit;\n    }\n    \n    // Saves the number of times the Talent has been used\n    struct TimesUsed {\n        uint times;\n    }\n    \n    // To save the names of all talent pieces\n    string[] TPNames;\n\n    uint count;\n    \n    \n    address payable public owner;\n    mapping(uint => Talent[]) data;\n    mapping(uint => TimesUsed[]) TU;\n    mapping (address=>uint) TalentPieceOwner;\n    mapping (address=>uint) TalentPieceUsers;\n    mapping(address=> uint) balances;\n    \n    \n    constructor() {\n        owner = payable(msg.sender);\n    }\n    \n    // Modifier to restrict function use to only admin   \n    modifier onlyAdmin{\n        require(msg.sender==owner,'onlyAdmin');\n        _;\n    }\n    \n    // Modifier to restrict function use to only Talent Piece Owner\n    modifier onlyTalentPieceOwner { \n        require(TalentPieceOwner[msg.sender]==1);\n        _;\n    }\n    \n    // Modifier to restrict function use to only user\n    modifier onlyUser {\n        require(TalentPieceUsers[msg.sender]==1 && msg.sender!=owner);\n        _;\n    }\n    \n    // Function to register a Talent Piece Owner and can be called only by admin\n    function registerTalentPieceOwner(address role, bool talentOwner) public onlyAdmin {\n        transfer(role, 100);\n        if(talentOwner) {\n            TalentPieceOwner[role] = 1;\n            TalentPieceUsers[role] = 1;\n        }\n        else\n            TalentPieceUsers[role] = 1;\n    }\n    \n    // Function to create a Talent Piece which can be called only by a Talent Piece Owner\n    function createTalentPiece(string memory name,string memory description, uint cost, uint limit) public onlyTalentPieceOwner {\n            Talent memory piece;\n            //TPNames memory TTT;\n            piece.by = payable(msg.sender);\n            piece.name = name;\n            piece.description = description;\n            piece.cost = cost;\n            piece.limit = limit;\n            data[count].push(piece);\n            \n            TPNames.push(name);\n            \n            count+=1;\n    }\n    \n    // To use Talent Piece which can be used only by a user\n    function useTalentPiece(uint number) public onlyUser returns (Talent[] memory show) {\n        show = data[number];\n        if(TU[number].length+1 < data[number][0].limit) {\n            TimesUsed memory T;\n            T.times=T.times+1;\n            TU[number].push(T);\n            transfer(data[number][0].by, data[number][0].cost);\n        }\n    }\n    \n    // To check how many times a talent has been used\n    function numberOfTimesUsed(uint number) view public returns (uint used) {\n        used = TU[number].length;\n    } \n    \n    // To check the data of a Talent\n    //function getData(uint number) view public returns (Talent[] memory c){\n    //    c = data[number];\n    //}\n\n    function getData(uint number) view public returns (uint256, string memory, string memory, uint, uint){\n      //string storage k = abi.encodePacked(data[number][0].by);\n        return (data[number][0].cost, data[number][0].name, data[number][0].description, data[number][0].cost, data[number][0].limit);\n    }\n    \n    // To get all the names of the talents created\n    function getNames() view public returns (string[] memory){\n        return TPNames;\n    }\n    \n    // To unregister a user\n    function unregisterTalentPieceOwner(address Towner) public onlyAdmin {\n        TalentPieceUsers[Towner] = 0;\n        if(TalentPieceOwner[Towner] == 1) {\n            TalentPieceUsers[Towner] = 0;\n        }\n    }\n}",
  "sourcePath": "/Users/viswaniharnukala/Documents/Courses/Blockchain/RSM/rsm-contract/contracts/RSM.sol",
  "compiler": {
    "name": "solc",
    "version": "0.8.0+commit.c7dfd78e.Emscripten.clang"
  },
  "schemaVersion": "3.4.3",
  "updatedAt": "2021-12-05T16:38:24.875Z",
  "devdoc": {
    "kind": "dev",
    "methods": {
      "allowance(address,address)": {
        "details": "Function to check the amount of tokens that an owner allowed to a spender.",
        "params": {
          "owner": "address The address which owns the funds.",
          "spender": "address The address which will spend the funds."
        },
        "returns": {
          "_0": "A uint256 specifying the amount of tokens still available for the spender."
        }
      },
      "balanceOf(address)": {
        "details": "Gets the balance of the specified address.",
        "params": {
          "owner": "The address to query the balance of."
        },
        "returns": {
          "_0": "An uint256 representing the amount owned by the passed address."
        }
      },
      "totalSupply()": {
        "details": "Total number of tokens in existence"
      },
      "transfer(address,uint256)": {
        "details": "Transfer token for a specified address",
        "params": {
          "to": "The address to transfer to.",
          "value": "The amount to be transferred."
        }
      }
    },
    "version": 1
  },
  "userdoc": {
    "kind": "user",
    "methods": {},
    "version": 1
  }
}